{
  "_format": "hh-sol-artifact-1",
  "contractName": "StartupInvestorDApp",
  "sourceName": "contracts/StartupInvestorDApp.sol",
  "abi": [
    {
      "inputs": [],
      "stateMutability": "nonpayable",
      "type": "constructor"
    },
    {
      "anonymous": false,
      "inputs": [
        {
          "indexed": true,
          "internalType": "address",
          "name": "startup1",
          "type": "address"
        },
        {
          "indexed": true,
          "internalType": "address",
          "name": "startup2",
          "type": "address"
        },
        {
          "indexed": false,
          "internalType": "string",
          "name": "combinedIdea",
          "type": "string"
        }
      ],
      "name": "CollaborationCreated",
      "type": "event"
    },
    {
      "anonymous": false,
      "inputs": [
        {
          "indexed": true,
          "internalType": "address",
          "name": "investor",
          "type": "address"
        },
        {
          "indexed": true,
          "internalType": "address",
          "name": "startup",
          "type": "address"
        },
        {
          "indexed": false,
          "internalType": "uint256",
          "name": "amount",
          "type": "uint256"
        }
      ],
      "name": "InvestmentReceived",
      "type": "event"
    },
    {
      "anonymous": false,
      "inputs": [
        {
          "indexed": true,
          "internalType": "address",
          "name": "startup",
          "type": "address"
        },
        {
          "indexed": false,
          "internalType": "bool",
          "name": "status",
          "type": "bool"
        }
      ],
      "name": "KYCVerified",
      "type": "event"
    },
    {
      "anonymous": false,
      "inputs": [
        {
          "indexed": true,
          "internalType": "address",
          "name": "owner",
          "type": "address"
        },
        {
          "indexed": false,
          "internalType": "string",
          "name": "name",
          "type": "string"
        },
        {
          "indexed": false,
          "internalType": "string",
          "name": "description",
          "type": "string"
        }
      ],
      "name": "StartupRegistered",
      "type": "event"
    },
    {
      "inputs": [],
      "name": "admin",
      "outputs": [
        {
          "internalType": "address",
          "name": "",
          "type": "address"
        }
      ],
      "stateMutability": "view",
      "type": "function"
    },
    {
      "inputs": [
        {
          "internalType": "address",
          "name": "_otherStartup",
          "type": "address"
        },
        {
          "internalType": "string",
          "name": "_combinedIdea",
          "type": "string"
        }
      ],
      "name": "collaborate",
      "outputs": [],
      "stateMutability": "nonpayable",
      "type": "function"
    },
    {
      "inputs": [
        {
          "internalType": "bytes32",
          "name": "",
          "type": "bytes32"
        }
      ],
      "name": "collaborations",
      "outputs": [
        {
          "internalType": "address",
          "name": "startup1",
          "type": "address"
        },
        {
          "internalType": "address",
          "name": "startup2",
          "type": "address"
        },
        {
          "internalType": "string",
          "name": "combinedIdea",
          "type": "string"
        },
        {
          "internalType": "bool",
          "name": "exists",
          "type": "bool"
        }
      ],
      "stateMutability": "view",
      "type": "function"
    },
    {
      "inputs": [],
      "name": "getVerifiedStartups",
      "outputs": [
        {
          "components": [
            {
              "internalType": "address",
              "name": "owner",
              "type": "address"
            },
            {
              "internalType": "string",
              "name": "name",
              "type": "string"
            },
            {
              "internalType": "string",
              "name": "description",
              "type": "string"
            },
            {
              "internalType": "string",
              "name": "domain",
              "type": "string"
            },
            {
              "internalType": "uint256",
              "name": "estimatedCost",
              "type": "uint256"
            },
            {
              "internalType": "string",
              "name": "businessRegCertHash",
              "type": "string"
            },
            {
              "internalType": "string",
              "name": "taxIdHash",
              "type": "string"
            },
            {
              "internalType": "string",
              "name": "gstNoHash",
              "type": "string"
            },
            {
              "internalType": "bool",
              "name": "isKYCVerified",
              "type": "bool"
            },
            {
              "internalType": "bool",
              "name": "exists",
              "type": "bool"
            }
          ],
          "internalType": "struct StartupInvestorDApp.Startup[]",
          "name": "",
          "type": "tuple[]"
        }
      ],
      "stateMutability": "view",
      "type": "function"
    },
    {
      "inputs": [
        {
          "internalType": "address",
          "name": "_startup",
          "type": "address"
        }
      ],
      "name": "invest",
      "outputs": [],
      "stateMutability": "payable",
      "type": "function"
    },
    {
      "inputs": [
        {
          "internalType": "string",
          "name": "_name",
          "type": "string"
        },
        {
          "internalType": "string",
          "name": "_description",
          "type": "string"
        },
        {
          "internalType": "string",
          "name": "_domain",
          "type": "string"
        },
        {
          "internalType": "uint256",
          "name": "_estimatedCost",
          "type": "uint256"
        },
        {
          "internalType": "string",
          "name": "_businessRegCertHash",
          "type": "string"
        },
        {
          "internalType": "string",
          "name": "_taxIdHash",
          "type": "string"
        },
        {
          "internalType": "string",
          "name": "_gstNoHash",
          "type": "string"
        }
      ],
      "name": "registerStartup",
      "outputs": [],
      "stateMutability": "nonpayable",
      "type": "function"
    },
    {
      "inputs": [
        {
          "internalType": "uint256",
          "name": "",
          "type": "uint256"
        }
      ],
      "name": "startupList",
      "outputs": [
        {
          "internalType": "address",
          "name": "",
          "type": "address"
        }
      ],
      "stateMutability": "view",
      "type": "function"
    },
    {
      "inputs": [
        {
          "internalType": "address",
          "name": "",
          "type": "address"
        }
      ],
      "name": "startups",
      "outputs": [
        {
          "internalType": "address",
          "name": "owner",
          "type": "address"
        },
        {
          "internalType": "string",
          "name": "name",
          "type": "string"
        },
        {
          "internalType": "string",
          "name": "description",
          "type": "string"
        },
        {
          "internalType": "string",
          "name": "domain",
          "type": "string"
        },
        {
          "internalType": "uint256",
          "name": "estimatedCost",
          "type": "uint256"
        },
        {
          "internalType": "string",
          "name": "businessRegCertHash",
          "type": "string"
        },
        {
          "internalType": "string",
          "name": "taxIdHash",
          "type": "string"
        },
        {
          "internalType": "string",
          "name": "gstNoHash",
          "type": "string"
        },
        {
          "internalType": "bool",
          "name": "isKYCVerified",
          "type": "bool"
        },
        {
          "internalType": "bool",
          "name": "exists",
          "type": "bool"
        }
      ],
      "stateMutability": "view",
      "type": "function"
    },
    {
      "inputs": [
        {
          "internalType": "address",
          "name": "_startup",
          "type": "address"
        },
        {
          "internalType": "bool",
          "name": "_status",
          "type": "bool"
        }
      ],
      "name": "verifyKYC",
      "outputs": [],
      "stateMutability": "nonpayable",
      "type": "function"
    }
  ],
  "bytecode": "0x608060405234801561001057600080fd5b50336000806101000a81548173ffffffffffffffffffffffffffffffffffffffff021916908373ffffffffffffffffffffffffffffffffffffffff160217905550612eb1806100606000396000f3fe6080604052600436106100865760003560e01c806391e481011161005957806391e481011461013657806395d15a941461015f578063a955312a1461018a578063b82e412c146101ca578063f851a4401461021057610086565b8063020a55b01461008b57806303bd9430146100b457806303f9c793146100f1578063474adb8f1461010d575b600080fd5b34801561009757600080fd5b506100b260048036038101906100ad9190611ce2565b61023b565b005b3480156100c057600080fd5b506100db60048036038101906100d69190611e2c565b6105a0565b6040516100e89190611e9a565b60405180910390f35b61010b60048036038101906101069190611ee1565b6105df565b005b34801561011957600080fd5b50610134600480360381019061012f9190611f46565b6107f5565b005b34801561014257600080fd5b5061015d60048036038101906101589190611f86565b610b03565b005b34801561016b57600080fd5b50610174610f64565b604051610181919061224d565b60405180910390f35b34801561019657600080fd5b506101b160048036038101906101ac91906122a5565b6115fe565b6040516101c1949392919061232b565b60405180910390f35b3480156101d657600080fd5b506101f160048036038101906101ec9190611ee1565b611703565b6040516102079a99989796959493929190612386565b60405180910390f35b34801561021c57600080fd5b50610225611ac1565b6040516102329190611e9a565b60405180910390f35b600160003373ffffffffffffffffffffffffffffffffffffffff1673ffffffffffffffffffffffffffffffffffffffff16815260200190815260200160002060080160019054906101000a900460ff16156102cb576040517f08c379a00000000000000000000000000000000000000000000000000000000081526004016102c290612498565b60405180910390fd5b600083511180156102dd575060008251115b80156102ea575060008151115b610329576040517f08c379a000000000000000000000000000000000000000000000000000000000815260040161032090612504565b60405180910390fd5b6040518061014001604052803373ffffffffffffffffffffffffffffffffffffffff16815260200188815260200187815260200186815260200185815260200184815260200183815260200182815260200160001515815260200160011515815250600160003373ffffffffffffffffffffffffffffffffffffffff1673ffffffffffffffffffffffffffffffffffffffff16815260200190815260200160002060008201518160000160006101000a81548173ffffffffffffffffffffffffffffffffffffffff021916908373ffffffffffffffffffffffffffffffffffffffff16021790555060208201518160010190816104269190612730565b50604082015181600201908161043c9190612730565b5060608201518160030190816104529190612730565b506080820151816004015560a08201518160050190816104729190612730565b5060c08201518160060190816104889190612730565b5060e082015181600701908161049e9190612730565b506101008201518160080160006101000a81548160ff0219169083151502179055506101208201518160080160016101000a81548160ff0219169083151502179055509050506003339080600181540180825580915050600190039060005260206000200160009091909190916101000a81548173ffffffffffffffffffffffffffffffffffffffff021916908373ffffffffffffffffffffffffffffffffffffffff1602179055503373ffffffffffffffffffffffffffffffffffffffff167f6a3fd215867e6c7a3decb30a6c9ca3618091f9344b1afcb9c603073bbb070818888860405161058f929190612802565b60405180910390a250505050505050565b600381815481106105b057600080fd5b906000526020600020016000915054906101000a900473ffffffffffffffffffffffffffffffffffffffff1681565b600160008273ffffffffffffffffffffffffffffffffffffffff1673ffffffffffffffffffffffffffffffffffffffff16815260200190815260200160002060080160019054906101000a900460ff1661066e576040517f08c379a000000000000000000000000000000000000000000000000000000000815260040161066590612885565b60405180910390fd5b600160008273ffffffffffffffffffffffffffffffffffffffff1673ffffffffffffffffffffffffffffffffffffffff16815260200190815260200160002060080160009054906101000a900460ff166106fd576040517f08c379a00000000000000000000000000000000000000000000000000000000081526004016106f4906128f1565b60405180910390fd5b662386f26fc100003411610746576040517f08c379a000000000000000000000000000000000000000000000000000000000815260040161073d9061295d565b60405180910390fd5b8073ffffffffffffffffffffffffffffffffffffffff166108fc349081150290604051600060405180830381858888f1935050505015801561078c573d6000803e3d6000fd5b508073ffffffffffffffffffffffffffffffffffffffff163373ffffffffffffffffffffffffffffffffffffffff167f41020eacb19e8312826acc31e4a323da2905fadc3b2b8e6d68c22c671b18ee04346040516107ea919061297d565b60405180910390a350565b60008054906101000a900473ffffffffffffffffffffffffffffffffffffffff1673ffffffffffffffffffffffffffffffffffffffff163373ffffffffffffffffffffffffffffffffffffffff1614610883576040517f08c379a000000000000000000000000000000000000000000000000000000000815260040161087a90612a0a565b60405180910390fd5b600160008373ffffffffffffffffffffffffffffffffffffffff1673ffffffffffffffffffffffffffffffffffffffff16815260200190815260200160002060080160019054906101000a900460ff16610912576040517f08c379a000000000000000000000000000000000000000000000000000000000815260040161090990612885565b60405180910390fd5b6000600160008473ffffffffffffffffffffffffffffffffffffffff1673ffffffffffffffffffffffffffffffffffffffff168152602001908152602001600020600501805461096190612553565b90501180156109be57506000600160008473ffffffffffffffffffffffffffffffffffffffff1673ffffffffffffffffffffffffffffffffffffffff16815260200190815260200160002060060180546109ba90612553565b9050115b8015610a1857506000600160008473ffffffffffffffffffffffffffffffffffffffff1673ffffffffffffffffffffffffffffffffffffffff1681526020019081526020016000206007018054610a1490612553565b9050115b610a57576040517f08c379a0000000000000000000000000000000000000000000000000000000008152600401610a4e90612a9c565b60405180910390fd5b80600160008473ffffffffffffffffffffffffffffffffffffffff1673ffffffffffffffffffffffffffffffffffffffff16815260200190815260200160002060080160006101000a81548160ff0219169083151502179055508173ffffffffffffffffffffffffffffffffffffffff167f7a02eb9b107b2ab713e88c3cd7ac538e5c21b689d0f1b1f22367578b28fc5d0982604051610af79190612abc565b60405180910390a25050565b600160003373ffffffffffffffffffffffffffffffffffffffff1673ffffffffffffffffffffffffffffffffffffffff16815260200190815260200160002060080160019054906101000a900460ff16610b92576040517f08c379a0000000000000000000000000000000000000000000000000000000008152600401610b8990612b23565b60405180910390fd5b600160008373ffffffffffffffffffffffffffffffffffffffff1673ffffffffffffffffffffffffffffffffffffffff16815260200190815260200160002060080160019054906101000a900460ff16610c21576040517f08c379a0000000000000000000000000000000000000000000000000000000008152600401610c1890612bb5565b60405180910390fd5b600160003373ffffffffffffffffffffffffffffffffffffffff1673ffffffffffffffffffffffffffffffffffffffff16815260200190815260200160002060080160009054906101000a900460ff16610cb0576040517f08c379a0000000000000000000000000000000000000000000000000000000008152600401610ca790612c21565b60405180910390fd5b600160008373ffffffffffffffffffffffffffffffffffffffff1673ffffffffffffffffffffffffffffffffffffffff16815260200190815260200160002060080160009054906101000a900460ff16610d3f576040517f08c379a0000000000000000000000000000000000000000000000000000000008152600401610d3690612cb3565b60405180910390fd5b60003383604051602001610d54929190612d1b565b6040516020818303038152906040528051906020012090506002600082815260200190815260200160002060030160009054906101000a900460ff1615610dd0576040517f08c379a0000000000000000000000000000000000000000000000000000000008152600401610dc790612d93565b60405180910390fd5b60405180608001604052803373ffffffffffffffffffffffffffffffffffffffff1681526020018473ffffffffffffffffffffffffffffffffffffffff168152602001838152602001600115158152506002600083815260200190815260200160002060008201518160000160006101000a81548173ffffffffffffffffffffffffffffffffffffffff021916908373ffffffffffffffffffffffffffffffffffffffff16021790555060208201518160010160006101000a81548173ffffffffffffffffffffffffffffffffffffffff021916908373ffffffffffffffffffffffffffffffffffffffff1602179055506040820151816002019081610ed69190612730565b5060608201518160030160006101000a81548160ff0219169083151502179055509050508273ffffffffffffffffffffffffffffffffffffffff163373ffffffffffffffffffffffffffffffffffffffff167f49966064e146479b1af70ebe7d3fed6be6fadaca044f2f95bf9948008312119184604051610f579190612db3565b60405180910390a3505050565b60606000805b60038054905081101561102c576001600060038381548110610f8f57610f8e612dd5565b5b9060005260206000200160009054906101000a900473ffffffffffffffffffffffffffffffffffffffff1673ffffffffffffffffffffffffffffffffffffffff1673ffffffffffffffffffffffffffffffffffffffff16815260200190815260200160002060080160009054906101000a900460ff161561101957818061101590612e33565b9250505b808061102490612e33565b915050610f6a565b5060008167ffffffffffffffff81111561104957611048611b81565b5b60405190808252806020026020018201604052801561108257816020015b61106f611ae5565b8152602001906001900390816110675790505b5090506000805b6003805490508110156115f45760016000600383815481106110ae576110ad612dd5565b5b9060005260206000200160009054906101000a900473ffffffffffffffffffffffffffffffffffffffff1673ffffffffffffffffffffffffffffffffffffffff1673ffffffffffffffffffffffffffffffffffffffff16815260200190815260200160002060080160009054906101000a900460ff16156115e157600160006003838154811061114157611140612dd5565b5b9060005260206000200160009054906101000a900473ffffffffffffffffffffffffffffffffffffffff1673ffffffffffffffffffffffffffffffffffffffff1673ffffffffffffffffffffffffffffffffffffffff168152602001908152602001600020604051806101400160405290816000820160009054906101000a900473ffffffffffffffffffffffffffffffffffffffff1673ffffffffffffffffffffffffffffffffffffffff1673ffffffffffffffffffffffffffffffffffffffff16815260200160018201805461121890612553565b80601f016020809104026020016040519081016040528092919081815260200182805461124490612553565b80156112915780601f1061126657610100808354040283529160200191611291565b820191906000526020600020905b81548152906001019060200180831161127457829003601f168201915b505050505081526020016002820180546112aa90612553565b80601f01602080910402602001604051908101604052809291908181526020018280546112d690612553565b80156113235780601f106112f857610100808354040283529160200191611323565b820191906000526020600020905b81548152906001019060200180831161130657829003601f168201915b5050505050815260200160038201805461133c90612553565b80601f016020809104026020016040519081016040528092919081815260200182805461136890612553565b80156113b55780601f1061138a576101008083540402835291602001916113b5565b820191906000526020600020905b81548152906001019060200180831161139857829003601f168201915b50505050508152602001600482015481526020016005820180546113d890612553565b80601f016020809104026020016040519081016040528092919081815260200182805461140490612553565b80156114515780601f1061142657610100808354040283529160200191611451565b820191906000526020600020905b81548152906001019060200180831161143457829003601f168201915b5050505050815260200160068201805461146a90612553565b80601f016020809104026020016040519081016040528092919081815260200182805461149690612553565b80156114e35780601f106114b8576101008083540402835291602001916114e3565b820191906000526020600020905b8154815290600101906020018083116114c657829003601f168201915b505050505081526020016007820180546114fc90612553565b80601f016020809104026020016040519081016040528092919081815260200182805461152890612553565b80156115755780601f1061154a57610100808354040283529160200191611575565b820191906000526020600020905b81548152906001019060200180831161155857829003601f168201915b505050505081526020016008820160009054906101000a900460ff161515151581526020016008820160019054906101000a900460ff1615151515815250508383815181106115c7576115c6612dd5565b5b602002602001018190525081806115dd90612e33565b9250505b80806115ec90612e33565b915050611089565b5081935050505090565b60026020528060005260406000206000915090508060000160009054906101000a900473ffffffffffffffffffffffffffffffffffffffff16908060010160009054906101000a900473ffffffffffffffffffffffffffffffffffffffff169080600201805461166d90612553565b80601f016020809104026020016040519081016040528092919081815260200182805461169990612553565b80156116e65780601f106116bb576101008083540402835291602001916116e6565b820191906000526020600020905b8154815290600101906020018083116116c957829003601f168201915b5050505050908060030160009054906101000a900460ff16905084565b60016020528060005260406000206000915090508060000160009054906101000a900473ffffffffffffffffffffffffffffffffffffffff169080600101805461174c90612553565b80601f016020809104026020016040519081016040528092919081815260200182805461177890612553565b80156117c55780601f1061179a576101008083540402835291602001916117c5565b820191906000526020600020905b8154815290600101906020018083116117a857829003601f168201915b5050505050908060020180546117da90612553565b80601f016020809104026020016040519081016040528092919081815260200182805461180690612553565b80156118535780601f1061182857610100808354040283529160200191611853565b820191906000526020600020905b81548152906001019060200180831161183657829003601f168201915b50505050509080600301805461186890612553565b80601f016020809104026020016040519081016040528092919081815260200182805461189490612553565b80156118e15780601f106118b6576101008083540402835291602001916118e1565b820191906000526020600020905b8154815290600101906020018083116118c457829003601f168201915b5050505050908060040154908060050180546118fc90612553565b80601f016020809104026020016040519081016040528092919081815260200182805461192890612553565b80156119755780601f1061194a57610100808354040283529160200191611975565b820191906000526020600020905b81548152906001019060200180831161195857829003601f168201915b50505050509080600601805461198a90612553565b80601f01602080910402602001604051908101604052809291908181526020018280546119b690612553565b8015611a035780601f106119d857610100808354040283529160200191611a03565b820191906000526020600020905b8154815290600101906020018083116119e657829003601f168201915b505050505090806007018054611a1890612553565b80601f0160208091040260200160405190810160405280929190818152602001828054611a4490612553565b8015611a915780601f10611a6657610100808354040283529160200191611a91565b820191906000526020600020905b815481529060010190602001808311611a7457829003601f168201915b5050505050908060080160009054906101000a900460ff16908060080160019054906101000a900460ff1690508a565b60008054906101000a900473ffffffffffffffffffffffffffffffffffffffff1681565b604051806101400160405280600073ffffffffffffffffffffffffffffffffffffffff168152602001606081526020016060815260200160608152602001600081526020016060815260200160608152602001606081526020016000151581526020016000151581525090565b6000604051905090565b600080fd5b600080fd5b600080fd5b600080fd5b6000601f19601f8301169050919050565b7f4e487b7100000000000000000000000000000000000000000000000000000000600052604160045260246000fd5b611bb982611b70565b810181811067ffffffffffffffff82111715611bd857611bd7611b81565b5b80604052505050565b6000611beb611b52565b9050611bf78282611bb0565b919050565b600067ffffffffffffffff821115611c1757611c16611b81565b5b611c2082611b70565b9050602081019050919050565b82818337600083830152505050565b6000611c4f611c4a84611bfc565b611be1565b905082815260208101848484011115611c6b57611c6a611b6b565b5b611c76848285611c2d565b509392505050565b600082601f830112611c9357611c92611b66565b5b8135611ca3848260208601611c3c565b91505092915050565b6000819050919050565b611cbf81611cac565b8114611cca57600080fd5b50565b600081359050611cdc81611cb6565b92915050565b600080600080600080600060e0888a031215611d0157611d00611b5c565b5b600088013567ffffffffffffffff811115611d1f57611d1e611b61565b5b611d2b8a828b01611c7e565b975050602088013567ffffffffffffffff811115611d4c57611d4b611b61565b5b611d588a828b01611c7e565b965050604088013567ffffffffffffffff811115611d7957611d78611b61565b5b611d858a828b01611c7e565b9550506060611d968a828b01611ccd565b945050608088013567ffffffffffffffff811115611db757611db6611b61565b5b611dc38a828b01611c7e565b93505060a088013567ffffffffffffffff811115611de457611de3611b61565b5b611df08a828b01611c7e565b92505060c088013567ffffffffffffffff811115611e1157611e10611b61565b5b611e1d8a828b01611c7e565b91505092959891949750929550565b600060208284031215611e4257611e41611b5c565b5b6000611e5084828501611ccd565b91505092915050565b600073ffffffffffffffffffffffffffffffffffffffff82169050919050565b6000611e8482611e59565b9050919050565b611e9481611e79565b82525050565b6000602082019050611eaf6000830184611e8b565b92915050565b611ebe81611e79565b8114611ec957600080fd5b50565b600081359050611edb81611eb5565b92915050565b600060208284031215611ef757611ef6611b5c565b5b6000611f0584828501611ecc565b91505092915050565b60008115159050919050565b611f2381611f0e565b8114611f2e57600080fd5b50565b600081359050611f4081611f1a565b92915050565b60008060408385031215611f5d57611f5c611b5c565b5b6000611f6b85828601611ecc565b9250506020611f7c85828601611f31565b9150509250929050565b60008060408385031215611f9d57611f9c611b5c565b5b6000611fab85828601611ecc565b925050602083013567ffffffffffffffff811115611fcc57611fcb611b61565b5b611fd885828601611c7e565b9150509250929050565b600081519050919050565b600082825260208201905092915050565b6000819050602082019050919050565b61201781611e79565b82525050565b600081519050919050565b600082825260208201905092915050565b60005b8381101561205757808201518184015260208101905061203c565b60008484015250505050565b600061206e8261201d565b6120788185612028565b9350612088818560208601612039565b61209181611b70565b840191505092915050565b6120a581611cac565b82525050565b6120b481611f0e565b82525050565b6000610140830160008301516120d3600086018261200e565b50602083015184820360208601526120eb8282612063565b915050604083015184820360408601526121058282612063565b9150506060830151848203606086015261211f8282612063565b9150506080830151612134608086018261209c565b5060a083015184820360a086015261214c8282612063565b91505060c083015184820360c08601526121668282612063565b91505060e083015184820360e08601526121808282612063565b9150506101008301516121976101008601826120ab565b506101208301516121ac6101208601826120ab565b508091505092915050565b60006121c383836120ba565b905092915050565b6000602082019050919050565b60006121e382611fe2565b6121ed8185611fed565b9350836020820285016121ff85611ffe565b8060005b8581101561223b578484038952815161221c85826121b7565b9450612227836121cb565b925060208a01995050600181019050612203565b50829750879550505050505092915050565b6000602082019050818103600083015261226781846121d8565b905092915050565b6000819050919050565b6122828161226f565b811461228d57600080fd5b50565b60008135905061229f81612279565b92915050565b6000602082840312156122bb576122ba611b5c565b5b60006122c984828501612290565b91505092915050565b600082825260208201905092915050565b60006122ee8261201d565b6122f881856122d2565b9350612308818560208601612039565b61231181611b70565b840191505092915050565b61232581611f0e565b82525050565b60006080820190506123406000830187611e8b565b61234d6020830186611e8b565b818103604083015261235f81856122e3565b905061236e606083018461231c565b95945050505050565b61238081611cac565b82525050565b60006101408201905061239c600083018d611e8b565b81810360208301526123ae818c6122e3565b905081810360408301526123c2818b6122e3565b905081810360608301526123d6818a6122e3565b90506123e56080830189612377565b81810360a08301526123f781886122e3565b905081810360c083015261240b81876122e3565b905081810360e083015261241f81866122e3565b905061242f61010083018561231c565b61243d61012083018461231c565b9b9a5050505050505050505050565b7f5374617274757020616c72656164792072656769737465726564000000000000600082015250565b6000612482601a836122d2565b915061248d8261244c565b602082019050919050565b600060208201905081810360008301526124b181612475565b9050919050565b7f416c6c20646f63756d656e7473206d7573742062652070726f76696465640000600082015250565b60006124ee601e836122d2565b91506124f9826124b8565b602082019050919050565b6000602082019050818103600083015261251d816124e1565b9050919050565b7f4e487b7100000000000000000000000000000000000000000000000000000000600052602260045260246000fd5b6000600282049050600182168061256b57607f821691505b60208210810361257e5761257d612524565b5b50919050565b60008190508160005260206000209050919050565b60006020601f8301049050919050565b600082821b905092915050565b6000600883026125e67fffffffffffffffffffffffffffffffffffffffffffffffffffffffffffffffff826125a9565b6125f086836125a9565b95508019841693508086168417925050509392505050565b6000819050919050565b600061262d61262861262384611cac565b612608565b611cac565b9050919050565b6000819050919050565b61264783612612565b61265b61265382612634565b8484546125b6565b825550505050565b600090565b612670612663565b61267b81848461263e565b505050565b5b8181101561269f57612694600082612668565b600181019050612681565b5050565b601f8211156126e4576126b581612584565b6126be84612599565b810160208510156126cd578190505b6126e16126d985612599565b830182612680565b50505b505050565b600082821c905092915050565b6000612707600019846008026126e9565b1980831691505092915050565b600061272083836126f6565b9150826002028217905092915050565b6127398261201d565b67ffffffffffffffff81111561275257612751611b81565b5b61275c8254612553565b6127678282856126a3565b600060209050601f83116001811461279a5760008415612788578287015190505b6127928582612714565b8655506127fa565b601f1984166127a886612584565b60005b828110156127d0578489015182556001820191506020850194506020810190506127ab565b868310156127ed57848901516127e9601f8916826126f6565b8355505b6001600288020188555050505b505050505050565b6000604082019050818103600083015261281c81856122e3565b9050818103602083015261283081846122e3565b90509392505050565b7f53746172747570206e6f7420666f756e64000000000000000000000000000000600082015250565b600061286f6011836122d2565b915061287a82612839565b602082019050919050565b6000602082019050818103600083015261289e81612862565b9050919050565b7f53746172747570206973206e6f74204b59432076657269666965640000000000600082015250565b60006128db601b836122d2565b91506128e6826128a5565b602082019050919050565b6000602082019050818103600083015261290a816128ce565b9050919050565b7f4d696e696d756d20696e766573746d656e7420697320302e3031204554480000600082015250565b6000612947601e836122d2565b915061295282612911565b602082019050919050565b600060208201905081810360008301526129768161293a565b9050919050565b60006020820190506129926000830184612377565b92915050565b7f4f6e6c792061646d696e2063616e20706572666f726d2074686973206163746960008201527f6f6e000000000000000000000000000000000000000000000000000000000000602082015250565b60006129f46022836122d2565b91506129ff82612998565b604082019050919050565b60006020820190508181036000830152612a23816129e7565b9050919050565b7f53746172747570206d75737420686176652075706c6f6164656420616c6c206460008201527f6f63756d656e7473000000000000000000000000000000000000000000000000602082015250565b6000612a866028836122d2565b9150612a9182612a2a565b604082019050919050565b60006020820190508181036000830152612ab581612a79565b9050919050565b6000602082019050612ad1600083018461231c565b92915050565b7f596f7520617265206e6f74206120726567697374657265642073746172747570600082015250565b6000612b0d6020836122d2565b9150612b1882612ad7565b602082019050919050565b60006020820190508181036000830152612b3c81612b00565b9050919050565b7f546865206f746865722073746172747570206973206e6f74207265676973746560008201527f7265640000000000000000000000000000000000000000000000000000000000602082015250565b6000612b9f6023836122d2565b9150612baa82612b43565b604082019050919050565b60006020820190508181036000830152612bce81612b92565b9050919050565b7f596f75722073746172747570206973206e6f74204b5943207665726966696564600082015250565b6000612c0b6020836122d2565b9150612c1682612bd5565b602082019050919050565b60006020820190508181036000830152612c3a81612bfe565b9050919050565b7f4f746865722073746172747570206973206e6f74204b5943207665726966696560008201527f6400000000000000000000000000000000000000000000000000000000000000602082015250565b6000612c9d6021836122d2565b9150612ca882612c41565b604082019050919050565b60006020820190508181036000830152612ccc81612c90565b9050919050565b60008160601b9050919050565b6000612ceb82612cd3565b9050919050565b6000612cfd82612ce0565b9050919050565b612d15612d1082611e79565b612cf2565b82525050565b6000612d278285612d04565b601482019150612d378284612d04565b6014820191508190509392505050565b7f436f6c6c61626f726174696f6e20616c72656164792065786973747300000000600082015250565b6000612d7d601c836122d2565b9150612d8882612d47565b602082019050919050565b60006020820190508181036000830152612dac81612d70565b9050919050565b60006020820190508181036000830152612dcd81846122e3565b905092915050565b7f4e487b7100000000000000000000000000000000000000000000000000000000600052603260045260246000fd5b7f4e487b7100000000000000000000000000000000000000000000000000000000600052601160045260246000fd5b6000612e3e82611cac565b91507fffffffffffffffffffffffffffffffffffffffffffffffffffffffffffffffff8203612e7057612e6f612e04565b5b60018201905091905056fea26469706673582212204bfc855afe25b67601d291177a0dc1303be988951194fd416efc5ab6237cb7a964736f6c63430008130033",
  "linkReferences": {},
  "deployedLinkReferences": {}
}